{
  "_format": "hh-sol-artifact-1",
  "contractName": "OnlyCars",
  "sourceName": "contracts/OnlyCars.sol",
  "abi": [
    {
      "inputs": [],
      "stateMutability": "nonpayable",
      "type": "constructor"
    },
    {
      "inputs": [
        {
          "internalType": "address",
          "name": "sender",
          "type": "address"
        },
        {
          "internalType": "uint256",
          "name": "tokenId",
          "type": "uint256"
        },
        {
          "internalType": "address",
          "name": "owner",
          "type": "address"
        }
      ],
      "name": "ERC721IncorrectOwner",
      "type": "error"
    },
    {
      "inputs": [
        {
          "internalType": "address",
          "name": "operator",
          "type": "address"
        },
        {
          "internalType": "uint256",
          "name": "tokenId",
          "type": "uint256"
        }
      ],
      "name": "ERC721InsufficientApproval",
      "type": "error"
    },
    {
      "inputs": [
        {
          "internalType": "address",
          "name": "approver",
          "type": "address"
        }
      ],
      "name": "ERC721InvalidApprover",
      "type": "error"
    },
    {
      "inputs": [
        {
          "internalType": "address",
          "name": "operator",
          "type": "address"
        }
      ],
      "name": "ERC721InvalidOperator",
      "type": "error"
    },
    {
      "inputs": [
        {
          "internalType": "address",
          "name": "owner",
          "type": "address"
        }
      ],
      "name": "ERC721InvalidOwner",
      "type": "error"
    },
    {
      "inputs": [
        {
          "internalType": "address",
          "name": "receiver",
          "type": "address"
        }
      ],
      "name": "ERC721InvalidReceiver",
      "type": "error"
    },
    {
      "inputs": [
        {
          "internalType": "address",
          "name": "sender",
          "type": "address"
        }
      ],
      "name": "ERC721InvalidSender",
      "type": "error"
    },
    {
      "inputs": [
        {
          "internalType": "uint256",
          "name": "tokenId",
          "type": "uint256"
        }
      ],
      "name": "ERC721NonexistentToken",
      "type": "error"
    },
    {
      "anonymous": false,
      "inputs": [
        {
          "indexed": true,
          "internalType": "address",
          "name": "owner",
          "type": "address"
        },
        {
          "indexed": true,
          "internalType": "address",
          "name": "approved",
          "type": "address"
        },
        {
          "indexed": true,
          "internalType": "uint256",
          "name": "tokenId",
          "type": "uint256"
        }
      ],
      "name": "Approval",
      "type": "event"
    },
    {
      "anonymous": false,
      "inputs": [
        {
          "indexed": true,
          "internalType": "address",
          "name": "owner",
          "type": "address"
        },
        {
          "indexed": true,
          "internalType": "address",
          "name": "operator",
          "type": "address"
        },
        {
          "indexed": false,
          "internalType": "bool",
          "name": "approved",
          "type": "bool"
        }
      ],
      "name": "ApprovalForAll",
      "type": "event"
    },
    {
      "anonymous": false,
      "inputs": [
        {
          "indexed": true,
          "internalType": "address",
          "name": "user",
          "type": "address"
        },
        {
          "indexed": false,
          "internalType": "uint256",
          "name": "amount",
          "type": "uint256"
        }
      ],
      "name": "BalanceTopUp",
      "type": "event"
    },
    {
      "anonymous": false,
      "inputs": [
        {
          "indexed": true,
          "internalType": "uint256",
          "name": "stationId",
          "type": "uint256"
        },
        {
          "indexed": true,
          "internalType": "address",
          "name": "owner",
          "type": "address"
        },
        {
          "indexed": false,
          "internalType": "string",
          "name": "metadata",
          "type": "string"
        }
      ],
      "name": "StationRegistered",
      "type": "event"
    },
    {
      "anonymous": false,
      "inputs": [
        {
          "indexed": true,
          "internalType": "uint256",
          "name": "stationId",
          "type": "uint256"
        },
        {
          "indexed": true,
          "internalType": "address",
          "name": "reporter",
          "type": "address"
        },
        {
          "indexed": false,
          "internalType": "string",
          "name": "issue",
          "type": "string"
        }
      ],
      "name": "StationReported",
      "type": "event"
    },
    {
      "anonymous": false,
      "inputs": [
        {
          "indexed": true,
          "internalType": "uint256",
          "name": "stationId",
          "type": "uint256"
        },
        {
          "indexed": true,
          "internalType": "uint256",
          "name": "vehicleId",
          "type": "uint256"
        },
        {
          "indexed": false,
          "internalType": "uint256",
          "name": "amount",
          "type": "uint256"
        }
      ],
      "name": "StationUsed",
      "type": "event"
    },
    {
      "anonymous": false,
      "inputs": [
        {
          "indexed": true,
          "internalType": "address",
          "name": "from",
          "type": "address"
        },
        {
          "indexed": true,
          "internalType": "address",
          "name": "to",
          "type": "address"
        },
        {
          "indexed": true,
          "internalType": "uint256",
          "name": "tokenId",
          "type": "uint256"
        }
      ],
      "name": "Transfer",
      "type": "event"
    },
    {
      "anonymous": false,
      "inputs": [
        {
          "indexed": true,
          "internalType": "uint256",
          "name": "vehicleId",
          "type": "uint256"
        },
        {
          "indexed": true,
          "internalType": "address",
          "name": "owner",
          "type": "address"
        }
      ],
      "name": "VehicleRegistered",
      "type": "event"
    },
    {
      "inputs": [
        {
          "internalType": "address",
          "name": "to",
          "type": "address"
        },
        {
          "internalType": "uint256",
          "name": "tokenId",
          "type": "uint256"
        }
      ],
      "name": "approve",
      "outputs": [],
      "stateMutability": "nonpayable",
      "type": "function"
    },
    {
      "inputs": [
        {
          "internalType": "address",
          "name": "owner",
          "type": "address"
        }
      ],
      "name": "balanceOf",
      "outputs": [
        {
          "internalType": "uint256",
          "name": "",
          "type": "uint256"
        }
      ],
      "stateMutability": "view",
      "type": "function"
    },
    {
      "inputs": [
        {
          "internalType": "address",
          "name": "",
          "type": "address"
        }
      ],
      "name": "balances",
      "outputs": [
        {
          "internalType": "uint256",
          "name": "",
          "type": "uint256"
        }
      ],
      "stateMutability": "view",
      "type": "function"
    },
    {
      "inputs": [
        {
          "internalType": "uint256",
          "name": "tokenId",
          "type": "uint256"
        }
      ],
      "name": "getApproved",
      "outputs": [
        {
          "internalType": "address",
          "name": "",
          "type": "address"
        }
      ],
      "stateMutability": "view",
      "type": "function"
    },
    {
      "inputs": [
        {
          "internalType": "address",
          "name": "owner",
          "type": "address"
        },
        {
          "internalType": "address",
          "name": "operator",
          "type": "address"
        }
      ],
      "name": "isApprovedForAll",
      "outputs": [
        {
          "internalType": "bool",
          "name": "",
          "type": "bool"
        }
      ],
      "stateMutability": "view",
      "type": "function"
    },
    {
      "inputs": [],
      "name": "mintVehicle",
      "outputs": [],
      "stateMutability": "nonpayable",
      "type": "function"
    },
    {
      "inputs": [],
      "name": "name",
      "outputs": [
        {
          "internalType": "string",
          "name": "",
          "type": "string"
        }
      ],
      "stateMutability": "view",
      "type": "function"
    },
    {
      "inputs": [
        {
          "internalType": "uint256",
          "name": "tokenId",
          "type": "uint256"
        }
      ],
      "name": "ownerOf",
      "outputs": [
        {
          "internalType": "address",
          "name": "",
          "type": "address"
        }
      ],
      "stateMutability": "view",
      "type": "function"
    },
    {
      "inputs": [
        {
          "internalType": "string",
          "name": "metadata",
          "type": "string"
        },
        {
          "internalType": "bytes",
          "name": "signedUID",
          "type": "bytes"
        }
      ],
      "name": "registerStation",
      "outputs": [],
      "stateMutability": "nonpayable",
      "type": "function"
    },
    {
      "inputs": [
        {
          "internalType": "uint256",
          "name": "stationId",
          "type": "uint256"
        },
        {
          "internalType": "string",
          "name": "issue",
          "type": "string"
        }
      ],
      "name": "reportStation",
      "outputs": [],
      "stateMutability": "nonpayable",
      "type": "function"
    },
    {
      "inputs": [
        {
          "internalType": "address",
          "name": "from",
          "type": "address"
        },
        {
          "internalType": "address",
          "name": "to",
          "type": "address"
        },
        {
          "internalType": "uint256",
          "name": "tokenId",
          "type": "uint256"
        }
      ],
      "name": "safeTransferFrom",
      "outputs": [],
      "stateMutability": "nonpayable",
      "type": "function"
    },
    {
      "inputs": [
        {
          "internalType": "address",
          "name": "from",
          "type": "address"
        },
        {
          "internalType": "address",
          "name": "to",
          "type": "address"
        },
        {
          "internalType": "uint256",
          "name": "tokenId",
          "type": "uint256"
        },
        {
          "internalType": "bytes",
          "name": "data",
          "type": "bytes"
        }
      ],
      "name": "safeTransferFrom",
      "outputs": [],
      "stateMutability": "nonpayable",
      "type": "function"
    },
    {
      "inputs": [
        {
          "internalType": "address",
          "name": "operator",
          "type": "address"
        },
        {
          "internalType": "bool",
          "name": "approved",
          "type": "bool"
        }
      ],
      "name": "setApprovalForAll",
      "outputs": [],
      "stateMutability": "nonpayable",
      "type": "function"
    },
    {
      "inputs": [
        {
          "internalType": "uint256",
          "name": "",
          "type": "uint256"
        }
      ],
      "name": "stations",
      "outputs": [
        {
          "internalType": "uint256",
          "name": "id",
          "type": "uint256"
        },
        {
          "internalType": "address",
          "name": "owner",
          "type": "address"
        },
        {
          "internalType": "string",
          "name": "metadata",
          "type": "string"
        },
        {
          "internalType": "bool",
          "name": "isActive",
          "type": "bool"
        }
      ],
      "stateMutability": "view",
      "type": "function"
    },
    {
      "inputs": [
        {
          "internalType": "bytes4",
          "name": "interfaceId",
          "type": "bytes4"
        }
      ],
      "name": "supportsInterface",
      "outputs": [
        {
          "internalType": "bool",
          "name": "",
          "type": "bool"
        }
      ],
      "stateMutability": "view",
      "type": "function"
    },
    {
      "inputs": [],
      "name": "symbol",
      "outputs": [
        {
          "internalType": "string",
          "name": "",
          "type": "string"
        }
      ],
      "stateMutability": "view",
      "type": "function"
    },
    {
      "inputs": [
        {
          "internalType": "uint256",
          "name": "tokenId",
          "type": "uint256"
        }
      ],
      "name": "tokenURI",
      "outputs": [
        {
          "internalType": "string",
          "name": "",
          "type": "string"
        }
      ],
      "stateMutability": "view",
      "type": "function"
    },
    {
      "inputs": [],
      "name": "topUp",
      "outputs": [],
      "stateMutability": "payable",
      "type": "function"
    },
    {
      "inputs": [
        {
          "internalType": "address",
          "name": "from",
          "type": "address"
        },
        {
          "internalType": "address",
          "name": "to",
          "type": "address"
        },
        {
          "internalType": "uint256",
          "name": "tokenId",
          "type": "uint256"
        }
      ],
      "name": "transferFrom",
      "outputs": [],
      "stateMutability": "nonpayable",
      "type": "function"
    },
    {
      "inputs": [
        {
          "internalType": "uint256",
          "name": "stationId",
          "type": "uint256"
        },
        {
          "internalType": "uint256",
          "name": "vehicleId",
          "type": "uint256"
        },
        {
          "internalType": "uint256",
          "name": "amount",
          "type": "uint256"
        }
      ],
      "name": "useStation",
      "outputs": [],
      "stateMutability": "nonpayable",
      "type": "function"
    },
    {
      "inputs": [
        {
          "internalType": "uint256",
          "name": "",
          "type": "uint256"
        }
      ],
      "name": "vehicles",
      "outputs": [
        {
          "internalType": "uint256",
          "name": "id",
          "type": "uint256"
        },
        {
          "internalType": "address",
          "name": "owner",
          "type": "address"
        }
      ],
      "stateMutability": "view",
      "type": "function"
    }
  ],
  "bytecode": "0x6080604052600160065560016007553480156200001b57600080fd5b506040518060400160405280601081526020017f4f6e6c79436172732056656869636c65000000000000000000000000000000008152506040518060400160405280600381526020017f4f4356000000000000000000000000000000000000000000000000000000000081525081600090816200009991906200032e565b508060019081620000ab91906200032e565b50505062000415565b600081519050919050565b7f4e487b7100000000000000000000000000000000000000000000000000000000600052604160045260246000fd5b7f4e487b7100000000000000000000000000000000000000000000000000000000600052602260045260246000fd5b600060028204905060018216806200013657607f821691505b6020821081036200014c576200014b620000ee565b5b50919050565b60008190508160005260206000209050919050565b60006020601f8301049050919050565b600082821b905092915050565b600060088302620001b67fffffffffffffffffffffffffffffffffffffffffffffffffffffffffffffffff8262000177565b620001c2868362000177565b95508019841693508086168417925050509392505050565b6000819050919050565b6000819050919050565b60006200020f620002096200020384620001da565b620001e4565b620001da565b9050919050565b6000819050919050565b6200022b83620001ee565b620002436200023a8262000216565b84845462000184565b825550505050565b600090565b6200025a6200024b565b6200026781848462000220565b505050565b5b818110156200028f576200028360008262000250565b6001810190506200026d565b5050565b601f821115620002de57620002a88162000152565b620002b38462000167565b81016020851015620002c3578190505b620002db620002d28562000167565b8301826200026c565b50505b505050565b600082821c905092915050565b60006200030360001984600802620002e3565b1980831691505092915050565b60006200031e8383620002f0565b9150826002028217905092915050565b6200033982620000b4565b67ffffffffffffffff811115620003555762000354620000bf565b5b6200036182546200011d565b6200036e82828562000293565b600060209050601f831160018114620003a6576000841562000391578287015190505b6200039d858262000310565b8655506200040d565b601f198416620003b68662000152565b60005b82811015620003e057848901518255600182019150602085019450602081019050620003b9565b86831015620004005784890151620003fc601f891682620002f0565b8355505b6001600288020188555050505b505050505050565b612ee380620004256000396000f3fe6080604052600436106101295760003560e01c80636352211e116100ab578063b88d4fde1161006f578063b88d4fde14610414578063b8ba95fa1461043d578063c87b56dd1461047b578063d3f0cc39146104b8578063dc29f1de146104cf578063e985e9c5146104d957610129565b80636352211e1461030657806370a082311461034357806392f859db1461038057806395d89b41146103c0578063a22cb465146103eb57610129565b806323b872dd116100f257806323b872dd1461022557806327e235e31461024e5780632d5d4ed81461028b57806337e505bb146102b457806342842e0e146102dd57610129565b8062a891bc1461012e57806301ffc9a71461015757806306fdde0314610194578063081812fc146101bf578063095ea7b3146101fc575b600080fd5b34801561013a57600080fd5b5061015560048036038101906101509190612172565b610516565b005b34801561016357600080fd5b5061017e60048036038101906101799190612242565b61065c565b60405161018b919061228a565b60405180910390f35b3480156101a057600080fd5b506101a961073e565b6040516101b69190612324565b60405180910390f35b3480156101cb57600080fd5b506101e660048036038101906101e1919061237c565b6107d0565b6040516101f391906123ea565b60405180910390f35b34801561020857600080fd5b50610223600480360381019061021e9190612431565b6107ec565b005b34801561023157600080fd5b5061024c60048036038101906102479190612471565b610802565b005b34801561025a57600080fd5b50610275600480360381019061027091906124c4565b610904565b6040516102829190612500565b60405180910390f35b34801561029757600080fd5b506102b260048036038101906102ad919061251b565b61091c565b005b3480156102c057600080fd5b506102db60048036038101906102d69190612577565b6109d2565b005b3480156102e957600080fd5b5061030460048036038101906102ff9190612471565b610c3e565b005b34801561031257600080fd5b5061032d6004803603810190610328919061237c565b610c5e565b60405161033a91906123ea565b60405180910390f35b34801561034f57600080fd5b5061036a600480360381019061036591906124c4565b610c70565b6040516103779190612500565b60405180910390f35b34801561038c57600080fd5b506103a760048036038101906103a2919061237c565b610d2a565b6040516103b794939291906125ca565b60405180910390f35b3480156103cc57600080fd5b506103d5610e0f565b6040516103e29190612324565b60405180910390f35b3480156103f757600080fd5b50610412600480360381019061040d9190612642565b610ea1565b005b34801561042057600080fd5b5061043b60048036038101906104369190612682565b610eb7565b005b34801561044957600080fd5b50610464600480360381019061045f919061237c565b610ed4565b604051610472929190612705565b60405180910390f35b34801561048757600080fd5b506104a2600480360381019061049d919061237c565b610f18565b6040516104af9190612324565b60405180910390f35b3480156104c457600080fd5b506104cd610f81565b005b6104d761107f565b005b3480156104e557600080fd5b5061050060048036038101906104fb919061272e565b611168565b60405161050d919061228a565b60405180910390f35b60006006600081548092919061052b9061279d565b91905055905060405180608001604052808281526020013373ffffffffffffffffffffffffffffffffffffffff16815260200184815260200160011515815250600860008381526020019081526020016000206000820151816000015560208201518160010160006101000a81548173ffffffffffffffffffffffffffffffffffffffff021916908373ffffffffffffffffffffffffffffffffffffffff16021790555060408201518160020190816105e491906129f1565b5060608201518160030160006101000a81548160ff0219169083151502179055509050503373ffffffffffffffffffffffffffffffffffffffff16817f9bf2d33296d6d69d9f7f107e0760c10b3c635bb99827a578111d3add903c10098560405161064f9190612324565b60405180910390a3505050565b60007f80ac58cd000000000000000000000000000000000000000000000000000000007bffffffffffffffffffffffffffffffffffffffffffffffffffffffff1916827bffffffffffffffffffffffffffffffffffffffffffffffffffffffff1916148061072757507f5b5e139f000000000000000000000000000000000000000000000000000000007bffffffffffffffffffffffffffffffffffffffffffffffffffffffff1916827bffffffffffffffffffffffffffffffffffffffffffffffffffffffff1916145b806107375750610736826111fc565b5b9050919050565b60606000805461074d90612814565b80601f016020809104026020016040519081016040528092919081815260200182805461077990612814565b80156107c65780601f1061079b576101008083540402835291602001916107c6565b820191906000526020600020905b8154815290600101906020018083116107a957829003601f168201915b5050505050905090565b60006107db82611266565b506107e5826112ee565b9050919050565b6107fe82826107f961132b565b611333565b5050565b600073ffffffffffffffffffffffffffffffffffffffff168273ffffffffffffffffffffffffffffffffffffffff16036108745760006040517f64a0ae9200000000000000000000000000000000000000000000000000000000815260040161086b91906123ea565b60405180910390fd5b6000610888838361088361132b565b611345565b90508373ffffffffffffffffffffffffffffffffffffffff168173ffffffffffffffffffffffffffffffffffffffff16146108fe578382826040517f64283d7b0000000000000000000000000000000000000000000000000000000081526004016108f593929190612ac3565b60405180910390fd5b50505050565b600a6020528060005260406000206000915090505481565b6008600083815260200190815260200160002060030160009054906101000a900460ff1661097f576040517f08c379a000000000000000000000000000000000000000000000000000000000815260040161097690612b46565b60405180910390fd5b3373ffffffffffffffffffffffffffffffffffffffff16827f4f09e261772c7aaae486b8e9d4f88596e567f70c7b2ee0efc63095234b0604cc836040516109c69190612324565b60405180910390a35050565b6008600084815260200190815260200160002060030160009054906101000a900460ff16610a35576040517f08c379a0000000000000000000000000000000000000000000000000000000008152600401610a2c90612b46565b60405180910390fd5b3373ffffffffffffffffffffffffffffffffffffffff16610a5583610c5e565b73ffffffffffffffffffffffffffffffffffffffff1614610aab576040517f08c379a0000000000000000000000000000000000000000000000000000000008152600401610aa290612bb2565b60405180910390fd5b80600a60003373ffffffffffffffffffffffffffffffffffffffff1673ffffffffffffffffffffffffffffffffffffffff168152602001908152602001600020541015610b2d576040517f08c379a0000000000000000000000000000000000000000000000000000000008152600401610b2490612c1e565b60405180910390fd5b80600a60003373ffffffffffffffffffffffffffffffffffffffff1673ffffffffffffffffffffffffffffffffffffffff1681526020019081526020016000206000828254610b7c9190612c3e565b925050819055506008600084815260200190815260200160002060010160009054906101000a900473ffffffffffffffffffffffffffffffffffffffff1673ffffffffffffffffffffffffffffffffffffffff166108fc829081150290604051600060405180830381858888f19350505050158015610bff573d6000803e3d6000fd5b5081837fb97c14546056b9c5877bb1eaad96f07c0778202138d4d32b455616c10cbe2f0483604051610c319190612500565b60405180910390a3505050565b610c5983838360405180602001604052806000815250610eb7565b505050565b6000610c6982611266565b9050919050565b60008073ffffffffffffffffffffffffffffffffffffffff168273ffffffffffffffffffffffffffffffffffffffff1603610ce35760006040517f89c62b64000000000000000000000000000000000000000000000000000000008152600401610cda91906123ea565b60405180910390fd5b600360008373ffffffffffffffffffffffffffffffffffffffff1673ffffffffffffffffffffffffffffffffffffffff168152602001908152602001600020549050919050565b60086020528060005260406000206000915090508060000154908060010160009054906101000a900473ffffffffffffffffffffffffffffffffffffffff1690806002018054610d7990612814565b80601f0160208091040260200160405190810160405280929190818152602001828054610da590612814565b8015610df25780601f10610dc757610100808354040283529160200191610df2565b820191906000526020600020905b815481529060010190602001808311610dd557829003601f168201915b5050505050908060030160009054906101000a900460ff16905084565b606060018054610e1e90612814565b80601f0160208091040260200160405190810160405280929190818152602001828054610e4a90612814565b8015610e975780601f10610e6c57610100808354040283529160200191610e97565b820191906000526020600020905b815481529060010190602001808311610e7a57829003601f168201915b5050505050905090565b610eb3610eac61132b565b838361155f565b5050565b610ec2848484610802565b610ece848484846116ce565b50505050565b60096020528060005260406000206000915090508060000154908060010160009054906101000a900473ffffffffffffffffffffffffffffffffffffffff16905082565b6060610f2382611266565b506000610f2e611885565b90506000815111610f4e5760405180602001604052806000815250610f79565b80610f588461189c565b604051602001610f69929190612cae565b6040516020818303038152906040525b915050919050565b600060076000815480929190610f969061279d565b919050559050610fa6338261196a565b60405180604001604052808281526020013373ffffffffffffffffffffffffffffffffffffffff16815250600960008381526020019081526020016000206000820151816000015560208201518160010160006101000a81548173ffffffffffffffffffffffffffffffffffffffff021916908373ffffffffffffffffffffffffffffffffffffffff1602179055509050503373ffffffffffffffffffffffffffffffffffffffff16817f5f392c61d263d5e43db807b3b3eb4fec5e7bd977dd126fae15e5f4263ade1d5760405160405180910390a350565b600034116110c2576040517f08c379a00000000000000000000000000000000000000000000000000000000081526004016110b990612d1e565b60405180910390fd5b34600a60003373ffffffffffffffffffffffffffffffffffffffff1673ffffffffffffffffffffffffffffffffffffffff16815260200190815260200160002060008282546111119190612d3e565b925050819055503373ffffffffffffffffffffffffffffffffffffffff167f98359a35d3822ea5e1b283b3010858421e6a24d5b58901f3bc2ac74fd7763f693460405161115e9190612500565b60405180910390a2565b6000600560008473ffffffffffffffffffffffffffffffffffffffff1673ffffffffffffffffffffffffffffffffffffffff16815260200190815260200160002060008373ffffffffffffffffffffffffffffffffffffffff1673ffffffffffffffffffffffffffffffffffffffff16815260200190815260200160002060009054906101000a900460ff16905092915050565b60007f01ffc9a7000000000000000000000000000000000000000000000000000000007bffffffffffffffffffffffffffffffffffffffffffffffffffffffff1916827bffffffffffffffffffffffffffffffffffffffffffffffffffffffff1916149050919050565b60008061127283611988565b9050600073ffffffffffffffffffffffffffffffffffffffff168173ffffffffffffffffffffffffffffffffffffffff16036112e557826040517f7e2732890000000000000000000000000000000000000000000000000000000081526004016112dc9190612500565b60405180910390fd5b80915050919050565b60006004600083815260200190815260200160002060009054906101000a900473ffffffffffffffffffffffffffffffffffffffff169050919050565b600033905090565b61134083838360016119c5565b505050565b60008061135184611988565b9050600073ffffffffffffffffffffffffffffffffffffffff168373ffffffffffffffffffffffffffffffffffffffff161461139357611392818486611b8a565b5b600073ffffffffffffffffffffffffffffffffffffffff168173ffffffffffffffffffffffffffffffffffffffff1614611424576113d56000856000806119c5565b6001600360008373ffffffffffffffffffffffffffffffffffffffff1673ffffffffffffffffffffffffffffffffffffffff168152602001908152602001600020600082825403925050819055505b600073ffffffffffffffffffffffffffffffffffffffff168573ffffffffffffffffffffffffffffffffffffffff16146114a7576001600360008773ffffffffffffffffffffffffffffffffffffffff1673ffffffffffffffffffffffffffffffffffffffff168152602001908152602001600020600082825401925050819055505b846002600086815260200190815260200160002060006101000a81548173ffffffffffffffffffffffffffffffffffffffff021916908373ffffffffffffffffffffffffffffffffffffffff160217905550838573ffffffffffffffffffffffffffffffffffffffff168273ffffffffffffffffffffffffffffffffffffffff167fddf252ad1be2c89b69c2b068fc378daa952ba7f163c4a11628f55a4df523b3ef60405160405180910390a4809150509392505050565b600073ffffffffffffffffffffffffffffffffffffffff168273ffffffffffffffffffffffffffffffffffffffff16036115d057816040517f5b08ba180000000000000000000000000000000000000000000000000000000081526004016115c791906123ea565b60405180910390fd5b80600560008573ffffffffffffffffffffffffffffffffffffffff1673ffffffffffffffffffffffffffffffffffffffff16815260200190815260200160002060008473ffffffffffffffffffffffffffffffffffffffff1673ffffffffffffffffffffffffffffffffffffffff16815260200190815260200160002060006101000a81548160ff0219169083151502179055508173ffffffffffffffffffffffffffffffffffffffff168373ffffffffffffffffffffffffffffffffffffffff167f17307eab39ab6107e8899845ad3d59bd9653f200f220920489ca2b5937696c31836040516116c1919061228a565b60405180910390a3505050565b60008373ffffffffffffffffffffffffffffffffffffffff163b111561187f578273ffffffffffffffffffffffffffffffffffffffff1663150b7a0261171261132b565b8685856040518563ffffffff1660e01b81526004016117349493929190612dc7565b6020604051808303816000875af192505050801561177057506040513d601f19601f8201168201806040525081019061176d9190612e28565b60015b6117f4573d80600081146117a0576040519150601f19603f3d011682016040523d82523d6000602084013e6117a5565b606091505b5060008151036117ec57836040517f64a0ae920000000000000000000000000000000000000000000000000000000081526004016117e391906123ea565b60405180910390fd5b805181602001fd5b63150b7a0260e01b7bffffffffffffffffffffffffffffffffffffffffffffffffffffffff1916817bffffffffffffffffffffffffffffffffffffffffffffffffffffffff19161461187d57836040517f64a0ae9200000000000000000000000000000000000000000000000000000000815260040161187491906123ea565b60405180910390fd5b505b50505050565b606060405180602001604052806000815250905090565b6060600060016118ab84611c4e565b01905060008167ffffffffffffffff8111156118ca576118c9611fa6565b5b6040519080825280601f01601f1916602001820160405280156118fc5781602001600182028036833780820191505090505b509050600082602001820190505b60011561195f578080600190039150507f3031323334353637383961626364656600000000000000000000000000000000600a86061a8153600a858161195357611952612e55565b5b0494506000850361190a575b819350505050919050565b611984828260405180602001604052806000815250611da1565b5050565b60006002600083815260200190815260200160002060009054906101000a900473ffffffffffffffffffffffffffffffffffffffff169050919050565b80806119fe5750600073ffffffffffffffffffffffffffffffffffffffff168273ffffffffffffffffffffffffffffffffffffffff1614155b15611b32576000611a0e84611266565b9050600073ffffffffffffffffffffffffffffffffffffffff168373ffffffffffffffffffffffffffffffffffffffff1614158015611a7957508273ffffffffffffffffffffffffffffffffffffffff168173ffffffffffffffffffffffffffffffffffffffff1614155b8015611a8c5750611a8a8184611168565b155b15611ace57826040517fa9fbf51f000000000000000000000000000000000000000000000000000000008152600401611ac591906123ea565b60405180910390fd5b8115611b3057838573ffffffffffffffffffffffffffffffffffffffff168273ffffffffffffffffffffffffffffffffffffffff167f8c5be1e5ebec7d5bd14f71427d1e84f3dd0314c0f7b2291e5b200ac8c7c3b92560405160405180910390a45b505b836004600085815260200190815260200160002060006101000a81548173ffffffffffffffffffffffffffffffffffffffff021916908373ffffffffffffffffffffffffffffffffffffffff16021790555050505050565b611b95838383611dbd565b611c4957600073ffffffffffffffffffffffffffffffffffffffff168373ffffffffffffffffffffffffffffffffffffffff1603611c0a57806040517f7e273289000000000000000000000000000000000000000000000000000000008152600401611c019190612500565b60405180910390fd5b81816040517f177e802f000000000000000000000000000000000000000000000000000000008152600401611c40929190612e84565b60405180910390fd5b505050565b600080600090507a184f03e93ff9f4daa797ed6e38ed64bf6a1f0100000000000000008310611cac577a184f03e93ff9f4daa797ed6e38ed64bf6a1f0100000000000000008381611ca257611ca1612e55565b5b0492506040810190505b6d04ee2d6d415b85acef81000000008310611ce9576d04ee2d6d415b85acef81000000008381611cdf57611cde612e55565b5b0492506020810190505b662386f26fc100008310611d1857662386f26fc100008381611d0e57611d0d612e55565b5b0492506010810190505b6305f5e1008310611d41576305f5e1008381611d3757611d36612e55565b5b0492506008810190505b6127108310611d66576127108381611d5c57611d5b612e55565b5b0492506004810190505b60648310611d895760648381611d7f57611d7e612e55565b5b0492506002810190505b600a8310611d98576001810190505b80915050919050565b611dab8383611e7e565b611db860008484846116ce565b505050565b60008073ffffffffffffffffffffffffffffffffffffffff168373ffffffffffffffffffffffffffffffffffffffff1614158015611e7557508273ffffffffffffffffffffffffffffffffffffffff168473ffffffffffffffffffffffffffffffffffffffff161480611e365750611e358484611168565b5b80611e7457508273ffffffffffffffffffffffffffffffffffffffff16611e5c836112ee565b73ffffffffffffffffffffffffffffffffffffffff16145b5b90509392505050565b600073ffffffffffffffffffffffffffffffffffffffff168273ffffffffffffffffffffffffffffffffffffffff1603611ef05760006040517f64a0ae92000000000000000000000000000000000000000000000000000000008152600401611ee791906123ea565b60405180910390fd5b6000611efe83836000611345565b9050600073ffffffffffffffffffffffffffffffffffffffff168173ffffffffffffffffffffffffffffffffffffffff1614611f725760006040517f73c6ac6e000000000000000000000000000000000000000000000000000000008152600401611f6991906123ea565b60405180910390fd5b505050565b6000604051905090565b600080fd5b600080fd5b600080fd5b600080fd5b6000601f19601f8301169050919050565b7f4e487b7100000000000000000000000000000000000000000000000000000000600052604160045260246000fd5b611fde82611f95565b810181811067ffffffffffffffff82111715611ffd57611ffc611fa6565b5b80604052505050565b6000612010611f77565b905061201c8282611fd5565b919050565b600067ffffffffffffffff82111561203c5761203b611fa6565b5b61204582611f95565b9050602081019050919050565b82818337600083830152505050565b600061207461206f84612021565b612006565b9050828152602081018484840111156120905761208f611f90565b5b61209b848285612052565b509392505050565b600082601f8301126120b8576120b7611f8b565b5b81356120c8848260208601612061565b91505092915050565b600067ffffffffffffffff8211156120ec576120eb611fa6565b5b6120f582611f95565b9050602081019050919050565b6000612115612110846120d1565b612006565b90508281526020810184848401111561213157612130611f90565b5b61213c848285612052565b509392505050565b600082601f83011261215957612158611f8b565b5b8135612169848260208601612102565b91505092915050565b6000806040838503121561218957612188611f81565b5b600083013567ffffffffffffffff8111156121a7576121a6611f86565b5b6121b3858286016120a3565b925050602083013567ffffffffffffffff8111156121d4576121d3611f86565b5b6121e085828601612144565b9150509250929050565b60007fffffffff0000000000000000000000000000000000000000000000000000000082169050919050565b61221f816121ea565b811461222a57600080fd5b50565b60008135905061223c81612216565b92915050565b60006020828403121561225857612257611f81565b5b60006122668482850161222d565b91505092915050565b60008115159050919050565b6122848161226f565b82525050565b600060208201905061229f600083018461227b565b92915050565b600081519050919050565b600082825260208201905092915050565b60005b838110156122df5780820151818401526020810190506122c4565b60008484015250505050565b60006122f6826122a5565b61230081856122b0565b93506123108185602086016122c1565b61231981611f95565b840191505092915050565b6000602082019050818103600083015261233e81846122eb565b905092915050565b6000819050919050565b61235981612346565b811461236457600080fd5b50565b60008135905061237681612350565b92915050565b60006020828403121561239257612391611f81565b5b60006123a084828501612367565b91505092915050565b600073ffffffffffffffffffffffffffffffffffffffff82169050919050565b60006123d4826123a9565b9050919050565b6123e4816123c9565b82525050565b60006020820190506123ff60008301846123db565b92915050565b61240e816123c9565b811461241957600080fd5b50565b60008135905061242b81612405565b92915050565b6000806040838503121561244857612447611f81565b5b60006124568582860161241c565b925050602061246785828601612367565b9150509250929050565b60008060006060848603121561248a57612489611f81565b5b60006124988682870161241c565b93505060206124a98682870161241c565b92505060406124ba86828701612367565b9150509250925092565b6000602082840312156124da576124d9611f81565b5b60006124e88482850161241c565b91505092915050565b6124fa81612346565b82525050565b600060208201905061251560008301846124f1565b92915050565b6000806040838503121561253257612531611f81565b5b600061254085828601612367565b925050602083013567ffffffffffffffff81111561256157612560611f86565b5b61256d858286016120a3565b9150509250929050565b6000806000606084860312156125905761258f611f81565b5b600061259e86828701612367565b93505060206125af86828701612367565b92505060406125c086828701612367565b9150509250925092565b60006080820190506125df60008301876124f1565b6125ec60208301866123db565b81810360408301526125fe81856122eb565b905061260d606083018461227b565b95945050505050565b61261f8161226f565b811461262a57600080fd5b50565b60008135905061263c81612616565b92915050565b6000806040838503121561265957612658611f81565b5b60006126678582860161241c565b92505060206126788582860161262d565b9150509250929050565b6000806000806080858703121561269c5761269b611f81565b5b60006126aa8782880161241c565b94505060206126bb8782880161241c565b93505060406126cc87828801612367565b925050606085013567ffffffffffffffff8111156126ed576126ec611f86565b5b6126f987828801612144565b91505092959194509250565b600060408201905061271a60008301856124f1565b61272760208301846123db565b9392505050565b6000806040838503121561274557612744611f81565b5b60006127538582860161241c565b92505060206127648582860161241c565b9150509250929050565b7f4e487b7100000000000000000000000000000000000000000000000000000000600052601160045260246000fd5b60006127a882612346565b91507fffffffffffffffffffffffffffffffffffffffffffffffffffffffffffffffff82036127da576127d961276e565b5b600182019050919050565b7f4e487b7100000000000000000000000000000000000000000000000000000000600052602260045260246000fd5b6000600282049050600182168061282c57607f821691505b60208210810361283f5761283e6127e5565b5b50919050565b60008190508160005260206000209050919050565b60006020601f8301049050919050565b600082821b905092915050565b6000600883026128a77fffffffffffffffffffffffffffffffffffffffffffffffffffffffffffffffff8261286a565b6128b1868361286a565b95508019841693508086168417925050509392505050565b6000819050919050565b60006128ee6128e96128e484612346565b6128c9565b612346565b9050919050565b6000819050919050565b612908836128d3565b61291c612914826128f5565b848454612877565b825550505050565b600090565b612931612924565b61293c8184846128ff565b505050565b5b8181101561296057612955600082612929565b600181019050612942565b5050565b601f8211156129a55761297681612845565b61297f8461285a565b8101602085101561298e578190505b6129a261299a8561285a565b830182612941565b50505b505050565b600082821c905092915050565b60006129c8600019846008026129aa565b1980831691505092915050565b60006129e183836129b7565b9150826002028217905092915050565b6129fa826122a5565b67ffffffffffffffff811115612a1357612a12611fa6565b5b612a1d8254612814565b612a28828285612964565b600060209050601f831160018114612a5b5760008415612a49578287015190505b612a5385826129d5565b865550612abb565b601f198416612a6986612845565b60005b82811015612a9157848901518255600182019150602085019450602081019050612a6c565b86831015612aae5784890151612aaa601f8916826129b7565b8355505b6001600288020188555050505b505050505050565b6000606082019050612ad860008301866123db565b612ae560208301856124f1565b612af260408301846123db565b949350505050565b7f53746174696f6e206973206e6f74206163746976650000000000000000000000600082015250565b6000612b306015836122b0565b9150612b3b82612afa565b602082019050919050565b60006020820190508181036000830152612b5f81612b23565b9050919050565b7f596f7520646f6e2774206f776e20746869732076656869636c65000000000000600082015250565b6000612b9c601a836122b0565b9150612ba782612b66565b602082019050919050565b60006020820190508181036000830152612bcb81612b8f565b9050919050565b7f496e73756666696369656e742062616c616e6365000000000000000000000000600082015250565b6000612c086014836122b0565b9150612c1382612bd2565b602082019050919050565b60006020820190508181036000830152612c3781612bfb565b9050919050565b6000612c4982612346565b9150612c5483612346565b9250828203905081811115612c6c57612c6b61276e565b5b92915050565b600081905092915050565b6000612c88826122a5565b612c928185612c72565b9350612ca28185602086016122c1565b80840191505092915050565b6000612cba8285612c7d565b9150612cc68284612c7d565b91508190509392505050565b7f416d6f756e74206d7573742062652067726561746572207468616e2030000000600082015250565b6000612d08601d836122b0565b9150612d1382612cd2565b602082019050919050565b60006020820190508181036000830152612d3781612cfb565b9050919050565b6000612d4982612346565b9150612d5483612346565b9250828201905080821115612d6c57612d6b61276e565b5b92915050565b600081519050919050565b600082825260208201905092915050565b6000612d9982612d72565b612da38185612d7d565b9350612db38185602086016122c1565b612dbc81611f95565b840191505092915050565b6000608082019050612ddc60008301876123db565b612de960208301866123db565b612df660408301856124f1565b8181036060830152612e088184612d8e565b905095945050505050565b600081519050612e2281612216565b92915050565b600060208284031215612e3e57612e3d611f81565b5b6000612e4c84828501612e13565b91505092915050565b7f4e487b7100000000000000000000000000000000000000000000000000000000600052601260045260246000fd5b6000604082019050612e9960008301856123db565b612ea660208301846124f1565b939250505056fea264697066735822122011101c43fb4260a4c616d5e60c9a58532378ff6acdd886be1e7a8c3d79d1a11764736f6c63430008180033",
  "linkReferences": {},
  "deployedLinkReferences": {}
}